{
  "_format": "hh-sol-artifact-1",
  "contractName": "NFTMarketplace",
  "sourceName": "contracts/NFTMarketplace.sol",
  "abi": [
    {
      "inputs": [],
      "stateMutability": "nonpayable",
      "type": "constructor"
    },
    {
      "anonymous": false,
      "inputs": [
        {
          "indexed": true,
          "internalType": "address",
          "name": "owner",
          "type": "address"
        },
        {
          "indexed": true,
          "internalType": "address",
          "name": "approved",
          "type": "address"
        },
        {
          "indexed": true,
          "internalType": "uint256",
          "name": "tokenId",
          "type": "uint256"
        }
      ],
      "name": "Approval",
      "type": "event"
    },
    {
      "anonymous": false,
      "inputs": [
        {
          "indexed": true,
          "internalType": "address",
          "name": "owner",
          "type": "address"
        },
        {
          "indexed": true,
          "internalType": "address",
          "name": "operator",
          "type": "address"
        },
        {
          "indexed": false,
          "internalType": "bool",
          "name": "approved",
          "type": "bool"
        }
      ],
      "name": "ApprovalForAll",
      "type": "event"
    },
    {
      "anonymous": false,
      "inputs": [
        {
          "indexed": true,
          "internalType": "uint256",
          "name": "tokenId",
          "type": "uint256"
        },
        {
          "indexed": false,
          "internalType": "address",
          "name": "seller",
          "type": "address"
        },
        {
          "indexed": false,
          "internalType": "address",
          "name": "owner",
          "type": "address"
        },
        {
          "indexed": false,
          "internalType": "uint256",
          "name": "price",
          "type": "uint256"
        },
        {
          "indexed": false,
          "internalType": "bool",
          "name": "sold",
          "type": "bool"
        }
      ],
      "name": "MarketItemCreated",
      "type": "event"
    },
    {
      "anonymous": false,
      "inputs": [
        {
          "indexed": true,
          "internalType": "address",
          "name": "from",
          "type": "address"
        },
        {
          "indexed": true,
          "internalType": "address",
          "name": "to",
          "type": "address"
        },
        {
          "indexed": true,
          "internalType": "uint256",
          "name": "tokenId",
          "type": "uint256"
        }
      ],
      "name": "Transfer",
      "type": "event"
    },
    {
      "inputs": [
        {
          "internalType": "address",
          "name": "to",
          "type": "address"
        },
        {
          "internalType": "uint256",
          "name": "tokenId",
          "type": "uint256"
        }
      ],
      "name": "approve",
      "outputs": [],
      "stateMutability": "nonpayable",
      "type": "function"
    },
    {
      "inputs": [
        {
          "internalType": "address",
          "name": "owner",
          "type": "address"
        }
      ],
      "name": "balanceOf",
      "outputs": [
        {
          "internalType": "uint256",
          "name": "",
          "type": "uint256"
        }
      ],
      "stateMutability": "view",
      "type": "function"
    },
    {
      "inputs": [
        {
          "internalType": "uint256",
          "name": "tokenId",
          "type": "uint256"
        }
      ],
      "name": "createMarketSale",
      "outputs": [],
      "stateMutability": "payable",
      "type": "function"
    },
    {
      "inputs": [
        {
          "internalType": "string",
          "name": "tokenURI",
          "type": "string"
        },
        {
          "internalType": "uint256",
          "name": "price",
          "type": "uint256"
        }
      ],
      "name": "createToken",
      "outputs": [
        {
          "internalType": "uint256",
          "name": "",
          "type": "uint256"
        }
      ],
      "stateMutability": "payable",
      "type": "function"
    },
    {
      "inputs": [],
      "name": "fetchItemsListed",
      "outputs": [
        {
          "components": [
            {
              "internalType": "uint256",
              "name": "tokenId",
              "type": "uint256"
            },
            {
              "internalType": "address payable",
              "name": "seller",
              "type": "address"
            },
            {
              "internalType": "address payable",
              "name": "owner",
              "type": "address"
            },
            {
              "internalType": "uint256",
              "name": "price",
              "type": "uint256"
            },
            {
              "internalType": "bool",
              "name": "sold",
              "type": "bool"
            }
          ],
          "internalType": "struct NFTMarketplace.MarketItem[]",
          "name": "",
          "type": "tuple[]"
        }
      ],
      "stateMutability": "view",
      "type": "function"
    },
    {
      "inputs": [],
      "name": "fetchMarketItems",
      "outputs": [
        {
          "components": [
            {
              "internalType": "uint256",
              "name": "tokenId",
              "type": "uint256"
            },
            {
              "internalType": "address payable",
              "name": "seller",
              "type": "address"
            },
            {
              "internalType": "address payable",
              "name": "owner",
              "type": "address"
            },
            {
              "internalType": "uint256",
              "name": "price",
              "type": "uint256"
            },
            {
              "internalType": "bool",
              "name": "sold",
              "type": "bool"
            }
          ],
          "internalType": "struct NFTMarketplace.MarketItem[]",
          "name": "",
          "type": "tuple[]"
        }
      ],
      "stateMutability": "view",
      "type": "function"
    },
    {
      "inputs": [],
      "name": "fetchMyNFTs",
      "outputs": [
        {
          "components": [
            {
              "internalType": "uint256",
              "name": "tokenId",
              "type": "uint256"
            },
            {
              "internalType": "address payable",
              "name": "seller",
              "type": "address"
            },
            {
              "internalType": "address payable",
              "name": "owner",
              "type": "address"
            },
            {
              "internalType": "uint256",
              "name": "price",
              "type": "uint256"
            },
            {
              "internalType": "bool",
              "name": "sold",
              "type": "bool"
            }
          ],
          "internalType": "struct NFTMarketplace.MarketItem[]",
          "name": "",
          "type": "tuple[]"
        }
      ],
      "stateMutability": "view",
      "type": "function"
    },
    {
      "inputs": [
        {
          "internalType": "uint256",
          "name": "tokenId",
          "type": "uint256"
        }
      ],
      "name": "getApproved",
      "outputs": [
        {
          "internalType": "address",
          "name": "",
          "type": "address"
        }
      ],
      "stateMutability": "view",
      "type": "function"
    },
    {
      "inputs": [],
      "name": "getListingPrice",
      "outputs": [
        {
          "internalType": "uint256",
          "name": "",
          "type": "uint256"
        }
      ],
      "stateMutability": "view",
      "type": "function"
    },
    {
      "inputs": [],
      "name": "getOwnerCommissionPercentage",
      "outputs": [
        {
          "internalType": "uint256",
          "name": "",
          "type": "uint256"
        }
      ],
      "stateMutability": "view",
      "type": "function"
    },
    {
      "inputs": [
        {
          "internalType": "address",
          "name": "owner",
          "type": "address"
        },
        {
          "internalType": "address",
          "name": "operator",
          "type": "address"
        }
      ],
      "name": "isApprovedForAll",
      "outputs": [
        {
          "internalType": "bool",
          "name": "",
          "type": "bool"
        }
      ],
      "stateMutability": "view",
      "type": "function"
    },
    {
      "inputs": [],
      "name": "name",
      "outputs": [
        {
          "internalType": "string",
          "name": "",
          "type": "string"
        }
      ],
      "stateMutability": "view",
      "type": "function"
    },
    {
      "inputs": [
        {
          "internalType": "uint256",
          "name": "tokenId",
          "type": "uint256"
        }
      ],
      "name": "ownerOf",
      "outputs": [
        {
          "internalType": "address",
          "name": "",
          "type": "address"
        }
      ],
      "stateMutability": "view",
      "type": "function"
    },
    {
      "inputs": [
        {
          "internalType": "uint256",
          "name": "tokenId",
          "type": "uint256"
        },
        {
          "internalType": "uint256",
          "name": "price",
          "type": "uint256"
        }
      ],
      "name": "resellToken",
      "outputs": [],
      "stateMutability": "payable",
      "type": "function"
    },
    {
      "inputs": [
        {
          "internalType": "address",
          "name": "from",
          "type": "address"
        },
        {
          "internalType": "address",
          "name": "to",
          "type": "address"
        },
        {
          "internalType": "uint256",
          "name": "tokenId",
          "type": "uint256"
        }
      ],
      "name": "safeTransferFrom",
      "outputs": [],
      "stateMutability": "nonpayable",
      "type": "function"
    },
    {
      "inputs": [
        {
          "internalType": "address",
          "name": "from",
          "type": "address"
        },
        {
          "internalType": "address",
          "name": "to",
          "type": "address"
        },
        {
          "internalType": "uint256",
          "name": "tokenId",
          "type": "uint256"
        },
        {
          "internalType": "bytes",
          "name": "_data",
          "type": "bytes"
        }
      ],
      "name": "safeTransferFrom",
      "outputs": [],
      "stateMutability": "nonpayable",
      "type": "function"
    },
    {
      "inputs": [
        {
          "internalType": "address",
          "name": "operator",
          "type": "address"
        },
        {
          "internalType": "bool",
          "name": "approved",
          "type": "bool"
        }
      ],
      "name": "setApprovalForAll",
      "outputs": [],
      "stateMutability": "nonpayable",
      "type": "function"
    },
    {
      "inputs": [
        {
          "internalType": "bytes4",
          "name": "interfaceId",
          "type": "bytes4"
        }
      ],
      "name": "supportsInterface",
      "outputs": [
        {
          "internalType": "bool",
          "name": "",
          "type": "bool"
        }
      ],
      "stateMutability": "view",
      "type": "function"
    },
    {
      "inputs": [],
      "name": "symbol",
      "outputs": [
        {
          "internalType": "string",
          "name": "",
          "type": "string"
        }
      ],
      "stateMutability": "view",
      "type": "function"
    },
    {
      "inputs": [
        {
          "internalType": "uint256",
          "name": "tokenId",
          "type": "uint256"
        }
      ],
      "name": "tokenURI",
      "outputs": [
        {
          "internalType": "string",
          "name": "",
          "type": "string"
        }
      ],
      "stateMutability": "view",
      "type": "function"
    },
    {
      "inputs": [
        {
          "internalType": "address",
          "name": "from",
          "type": "address"
        },
        {
          "internalType": "address",
          "name": "to",
          "type": "address"
        },
        {
          "internalType": "uint256",
          "name": "tokenId",
          "type": "uint256"
        }
      ],
      "name": "transferFrom",
      "outputs": [],
      "stateMutability": "nonpayable",
      "type": "function"
    },
    {
      "inputs": [
        {
          "internalType": "uint256",
          "name": "_listingPrice",
          "type": "uint256"
        }
      ],
      "name": "updateListingPrice",
      "outputs": [],
      "stateMutability": "payable",
      "type": "function"
    },
    {
      "inputs": [
        {
          "internalType": "uint256",
          "name": "_ownerCommissionPercentage",
          "type": "uint256"
        }
      ],
      "name": "updateOwnerCommissionPercentage",
      "outputs": [],
      "stateMutability": "payable",
      "type": "function"
    }
  ],
  "bytecode": "0x60806040526801158e460913d00000600955600f600a55600a546103e8620000289190620001d0565b600b553480156200003857600080fd5b506040518060400160405280600a81526020017f416d6972617665727365000000000000000000000000000000000000000000008152506040518060400160405280600581526020017f414d4952410000000000000000000000000000000000000000000000000000008152508160009080519060200190620000bd92919062000120565b508060019080519060200190620000d692919062000120565b50505033600c60006101000a81548173ffffffffffffffffffffffffffffffffffffffff021916908373ffffffffffffffffffffffffffffffffffffffff160217905550620002a9565b8280546200012e9062000215565b90600052602060002090601f0160209004810192826200015257600085556200019e565b82601f106200016d57805160ff19168380011785556200019e565b828001600101855582156200019e579182015b828111156200019d57825182559160200191906001019062000180565b5b509050620001ad9190620001b1565b5090565b5b80821115620001cc576000816000905550600101620001b2565b5090565b6000620001dd826200020b565b9150620001ea836200020b565b9250828210156200020057620001ff6200024b565b5b828203905092915050565b6000819050919050565b600060028204905060018216806200022e57607f821691505b602082108114156200024557620002446200027a565b5b50919050565b7f4e487b7100000000000000000000000000000000000000000000000000000000600052601160045260246000fd5b7f4e487b7100000000000000000000000000000000000000000000000000000000600052602260045260246000fd5b6145f880620002b96000396000f3fe6080604052600436106101405760003560e01c80636352211e116100b6578063b88d4fde1161006f578063b88d4fde14610447578063be9af53614610470578063c87b56dd1461048c578063e219fc75146104c9578063e985e9c5146104e5578063f060a4471461052257610140565b80636352211e1461032d57806370a082311461036a57806372b3b620146103a757806395d89b41146103d7578063a22cb46514610402578063ae677aa31461042b57610140565b806312e855851161010857806312e855851461023e578063202e37401461026957806323b872dd146102945780633ff7abca146102bd57806342842e0e146102d957806345f8fa801461030257610140565b806301ffc9a71461014557806306fdde0314610182578063081812fc146101ad578063095ea7b3146101ea5780630f08efe014610213575b600080fd5b34801561015157600080fd5b5061016c6004803603810190610167919061304c565b61054d565b6040516101799190613749565b60405180910390f35b34801561018e57600080fd5b5061019761062f565b6040516101a49190613764565b60405180910390f35b3480156101b957600080fd5b506101d460048036038101906101cf91906130f2565b6106c1565b6040516101e1919061367b565b60405180910390f35b3480156101f657600080fd5b50610211600480360381019061020c9190613010565b610746565b005b34801561021f57600080fd5b5061022861085e565b6040516102359190613727565b60405180910390f35b34801561024a57600080fd5b50610253610b13565b6040516102609190613a66565b60405180910390f35b34801561027557600080fd5b5061027e610b1d565b60405161028b9190613727565b60405180910390f35b3480156102a057600080fd5b506102bb60048036038101906102b69190612f0a565b610e57565b005b6102d760048036038101906102d291906130f2565b610eb7565b005b3480156102e557600080fd5b5061030060048036038101906102fb9190612f0a565b610f51565b005b34801561030e57600080fd5b50610317610f71565b6040516103249190613727565b60405180910390f35b34801561033957600080fd5b50610354600480360381019061034f91906130f2565b6112ab565b604051610361919061367b565b60405180910390f35b34801561037657600080fd5b50610391600480360381019061038c9190612ea5565b61135d565b60405161039e9190613a66565b60405180910390f35b6103c160048036038101906103bc919061309e565b611415565b6040516103ce9190613a66565b60405180910390f35b3480156103e357600080fd5b506103ec611457565b6040516103f99190613764565b60405180910390f35b34801561040e57600080fd5b5061042960048036038101906104249190612fd4565b6114e9565b005b610445600480360381019061044091906130f2565b6114ff565b005b34801561045357600080fd5b5061046e60048036038101906104699190612f59565b611599565b005b61048a600480360381019061048591906130f2565b6115fb565b005b34801561049857600080fd5b506104b360048036038101906104ae91906130f2565b6118be565b6040516104c09190613764565b60405180910390f35b6104e360048036038101906104de919061311b565b611a10565b005b3480156104f157600080fd5b5061050c60048036038101906105079190612ece565b611c05565b6040516105199190613749565b60405180910390f35b34801561052e57600080fd5b50610537611c99565b6040516105449190613a66565b60405180910390f35b60007f80ac58cd000000000000000000000000000000000000000000000000000000007bffffffffffffffffffffffffffffffffffffffffffffffffffffffff1916827bffffffffffffffffffffffffffffffffffffffffffffffffffffffff1916148061061857507f5b5e139f000000000000000000000000000000000000000000000000000000007bffffffffffffffffffffffffffffffffffffffffffffffffffffffff1916827bffffffffffffffffffffffffffffffffffffffffffffffffffffffff1916145b80610628575061062782611ca3565b5b9050919050565b60606000805461063e90613d61565b80601f016020809104026020016040519081016040528092919081815260200182805461066a90613d61565b80156106b75780601f1061068c576101008083540402835291602001916106b7565b820191906000526020600020905b81548152906001019060200180831161069a57829003601f168201915b5050505050905090565b60006106cc82611d0d565b61070b576040517f08c379a000000000000000000000000000000000000000000000000000000000815260040161070290613986565b60405180910390fd5b6004600083815260200190815260200160002060009054906101000a900473ffffffffffffffffffffffffffffffffffffffff169050919050565b6000610751826112ab565b90508073ffffffffffffffffffffffffffffffffffffffff168373ffffffffffffffffffffffffffffffffffffffff1614156107c2576040517f08c379a00000000000000000000000000000000000000000000000000000000081526004016107b9906139c6565b60405180910390fd5b8073ffffffffffffffffffffffffffffffffffffffff166107e1611d79565b73ffffffffffffffffffffffffffffffffffffffff161480610810575061080f8161080a611d79565b611c05565b5b61084f576040517f08c379a000000000000000000000000000000000000000000000000000000000815260040161084690613886565b60405180910390fd5b6108598383611d81565b505050565b6060600061086c6007611e3a565b9050600061087a6008611e3a565b6108846007611e3a565b61088e9190613c65565b90506000808267ffffffffffffffff8111156108d3577f4e487b7100000000000000000000000000000000000000000000000000000000600052604160045260246000fd5b60405190808252806020026020018201604052801561090c57816020015b6108f9612c6c565b8152602001906001900390816108f15790505b50905060005b84811015610b08573073ffffffffffffffffffffffffffffffffffffffff16600d60006001846109429190613b84565b815260200190815260200160002060020160009054906101000a900473ffffffffffffffffffffffffffffffffffffffff1673ffffffffffffffffffffffffffffffffffffffff161415610af557600060018261099f9190613b84565b90506000600d60008381526020019081526020016000209050806040518060a0016040529081600082015481526020016001820160009054906101000a900473ffffffffffffffffffffffffffffffffffffffff1673ffffffffffffffffffffffffffffffffffffffff1673ffffffffffffffffffffffffffffffffffffffff1681526020016002820160009054906101000a900473ffffffffffffffffffffffffffffffffffffffff1673ffffffffffffffffffffffffffffffffffffffff1673ffffffffffffffffffffffffffffffffffffffff168152602001600382015481526020016004820160009054906101000a900460ff161515151581525050848681518110610ad8577f4e487b7100000000000000000000000000000000000000000000000000000000600052603260045260246000fd5b6020026020010181905250600185610af09190613b84565b945050505b8080610b0090613dc4565b915050610912565b508094505050505090565b6000600954905090565b60606000610b2b6007611e3a565b905060008060005b83811015610bd4573373ffffffffffffffffffffffffffffffffffffffff16600d6000600184610b639190613b84565b815260200190815260200160002060020160009054906101000a900473ffffffffffffffffffffffffffffffffffffffff1673ffffffffffffffffffffffffffffffffffffffff161415610bc157600183610bbe9190613b84565b92505b8080610bcc90613dc4565b915050610b33565b5060008267ffffffffffffffff811115610c17577f4e487b7100000000000000000000000000000000000000000000000000000000600052604160045260246000fd5b604051908082528060200260200182016040528015610c5057816020015b610c3d612c6c565b815260200190600190039081610c355790505b50905060005b84811015610e4c573373ffffffffffffffffffffffffffffffffffffffff16600d6000600184610c869190613b84565b815260200190815260200160002060020160009054906101000a900473ffffffffffffffffffffffffffffffffffffffff1673ffffffffffffffffffffffffffffffffffffffff161415610e39576000600182610ce39190613b84565b90506000600d60008381526020019081526020016000209050806040518060a0016040529081600082015481526020016001820160009054906101000a900473ffffffffffffffffffffffffffffffffffffffff1673ffffffffffffffffffffffffffffffffffffffff1673ffffffffffffffffffffffffffffffffffffffff1681526020016002820160009054906101000a900473ffffffffffffffffffffffffffffffffffffffff1673ffffffffffffffffffffffffffffffffffffffff1673ffffffffffffffffffffffffffffffffffffffff168152602001600382015481526020016004820160009054906101000a900460ff161515151581525050848681518110610e1c577f4e487b7100000000000000000000000000000000000000000000000000000000600052603260045260246000fd5b6020026020010181905250600185610e349190613b84565b945050505b8080610e4490613dc4565b915050610c56565b508094505050505090565b610e68610e62611d79565b82611e48565b610ea7576040517f08c379a0000000000000000000000000000000000000000000000000000000008152600401610e9e90613a06565b60405180910390fd5b610eb2838383611f26565b505050565b3373ffffffffffffffffffffffffffffffffffffffff16600c60009054906101000a900473ffffffffffffffffffffffffffffffffffffffff1673ffffffffffffffffffffffffffffffffffffffff1614610f47576040517f08c379a0000000000000000000000000000000000000000000000000000000008152600401610f3e90613806565b60405180910390fd5b80600a8190555050565b610f6c83838360405180602001604052806000815250611599565b505050565b60606000610f7f6007611e3a565b905060008060005b83811015611028573373ffffffffffffffffffffffffffffffffffffffff16600d6000600184610fb79190613b84565b815260200190815260200160002060010160009054906101000a900473ffffffffffffffffffffffffffffffffffffffff1673ffffffffffffffffffffffffffffffffffffffff161415611015576001836110129190613b84565b92505b808061102090613dc4565b915050610f87565b5060008267ffffffffffffffff81111561106b577f4e487b7100000000000000000000000000000000000000000000000000000000600052604160045260246000fd5b6040519080825280602002602001820160405280156110a457816020015b611091612c6c565b8152602001906001900390816110895790505b50905060005b848110156112a0573373ffffffffffffffffffffffffffffffffffffffff16600d60006001846110da9190613b84565b815260200190815260200160002060010160009054906101000a900473ffffffffffffffffffffffffffffffffffffffff1673ffffffffffffffffffffffffffffffffffffffff16141561128d5760006001826111379190613b84565b90506000600d60008381526020019081526020016000209050806040518060a0016040529081600082015481526020016001820160009054906101000a900473ffffffffffffffffffffffffffffffffffffffff1673ffffffffffffffffffffffffffffffffffffffff1673ffffffffffffffffffffffffffffffffffffffff1681526020016002820160009054906101000a900473ffffffffffffffffffffffffffffffffffffffff1673ffffffffffffffffffffffffffffffffffffffff1673ffffffffffffffffffffffffffffffffffffffff168152602001600382015481526020016004820160009054906101000a900460ff161515151581525050848681518110611270577f4e487b7100000000000000000000000000000000000000000000000000000000600052603260045260246000fd5b60200260200101819052506001856112889190613b84565b945050505b808061129890613dc4565b9150506110aa565b508094505050505090565b6000806002600084815260200190815260200160002060009054906101000a900473ffffffffffffffffffffffffffffffffffffffff169050600073ffffffffffffffffffffffffffffffffffffffff168173ffffffffffffffffffffffffffffffffffffffff161415611354576040517f08c379a000000000000000000000000000000000000000000000000000000000815260040161134b906138c6565b60405180910390fd5b80915050919050565b60008073ffffffffffffffffffffffffffffffffffffffff168273ffffffffffffffffffffffffffffffffffffffff1614156113ce576040517f08c379a00000000000000000000000000000000000000000000000000000000081526004016113c5906138a6565b60405180910390fd5b600360008373ffffffffffffffffffffffffffffffffffffffff1673ffffffffffffffffffffffffffffffffffffffff168152602001908152602001600020549050919050565b6000611421600761218d565b600061142d6007611e3a565b905061143933826121a3565b611443818561237d565b61144d81846123f1565b8091505092915050565b60606001805461146690613d61565b80601f016020809104026020016040519081016040528092919081815260200182805461149290613d61565b80156114df5780601f106114b4576101008083540402835291602001916114df565b820191906000526020600020905b8154815290600101906020018083116114c257829003601f168201915b5050505050905090565b6114fb6114f4611d79565b83836125f4565b5050565b3373ffffffffffffffffffffffffffffffffffffffff16600c60009054906101000a900473ffffffffffffffffffffffffffffffffffffffff1673ffffffffffffffffffffffffffffffffffffffff161461158f576040517f08c379a000000000000000000000000000000000000000000000000000000000815260040161158690613a26565b60405180910390fd5b8060098190555050565b6115aa6115a4611d79565b83611e48565b6115e9576040517f08c379a00000000000000000000000000000000000000000000000000000000081526004016115e090613a06565b60405180910390fd5b6115f584848484612761565b50505050565b6000600d60008381526020019081526020016000206003015490506000600d600084815260200190815260200160002060010160009054906101000a900473ffffffffffffffffffffffffffffffffffffffff169050813414611693576040517f08c379a000000000000000000000000000000000000000000000000000000000815260040161168a90613906565b60405180910390fd5b33600d600085815260200190815260200160002060020160006101000a81548173ffffffffffffffffffffffffffffffffffffffff021916908373ffffffffffffffffffffffffffffffffffffffff1602179055506001600d600085815260200190815260200160002060040160006101000a81548160ff0219169083151502179055506000600d600085815260200190815260200160002060010160006101000a81548173ffffffffffffffffffffffffffffffffffffffff021916908373ffffffffffffffffffffffffffffffffffffffff160217905550611777600861218d565b611782303385611f26565b600c60009054906101000a900473ffffffffffffffffffffffffffffffffffffffff1673ffffffffffffffffffffffffffffffffffffffff166108fc6009549081150290604051600060405180830381858888f193505050501580156117ec573d6000803e3d6000fd5b50600d600084815260200190815260200160002060010160009054906101000a900473ffffffffffffffffffffffffffffffffffffffff1673ffffffffffffffffffffffffffffffffffffffff166108fc349081150290604051600060405180830381858888f19350505050158015611869573d6000803e3d6000fd5b508073ffffffffffffffffffffffffffffffffffffffff166108fc61188d346127bd565b9081150290604051600060405180830381858888f193505050501580156118b8573d6000803e3d6000fd5b50505050565b60606118c982611d0d565b611908576040517f08c379a00000000000000000000000000000000000000000000000000000000081526004016118ff90613946565b60405180910390fd5b600060066000848152602001908152602001600020805461192890613d61565b80601f016020809104026020016040519081016040528092919081815260200182805461195490613d61565b80156119a15780601f10611976576101008083540402835291602001916119a1565b820191906000526020600020905b81548152906001019060200180831161198457829003601f168201915b5050505050905060006119b26127e1565b90506000815114156119c8578192505050611a0b565b6000825111156119fd5780826040516020016119e5929190613657565b60405160208183030381529060405292505050611a0b565b611a06846127f8565b925050505b919050565b3373ffffffffffffffffffffffffffffffffffffffff16600d600084815260200190815260200160002060020160009054906101000a900473ffffffffffffffffffffffffffffffffffffffff1673ffffffffffffffffffffffffffffffffffffffff1614611ab4576040517f08c379a0000000000000000000000000000000000000000000000000000000008152600401611aab90613966565b60405180910390fd5b6009543414611af8576040517f08c379a0000000000000000000000000000000000000000000000000000000008152600401611aef906139e6565b60405180910390fd5b6000600d600084815260200190815260200160002060040160006101000a81548160ff02191690831515021790555080600d60008481526020019081526020016000206003018190555033600d600084815260200190815260200160002060010160006101000a81548173ffffffffffffffffffffffffffffffffffffffff021916908373ffffffffffffffffffffffffffffffffffffffff16021790555030600d600084815260200190815260200160002060020160006101000a81548173ffffffffffffffffffffffffffffffffffffffff021916908373ffffffffffffffffffffffffffffffffffffffff160217905550611bf6600861289f565b611c01333084611f26565b5050565b6000600560008473ffffffffffffffffffffffffffffffffffffffff1673ffffffffffffffffffffffffffffffffffffffff16815260200190815260200160002060008373ffffffffffffffffffffffffffffffffffffffff1673ffffffffffffffffffffffffffffffffffffffff16815260200190815260200160002060009054906101000a900460ff16905092915050565b6000600a54905090565b60007f01ffc9a7000000000000000000000000000000000000000000000000000000007bffffffffffffffffffffffffffffffffffffffffffffffffffffffff1916827bffffffffffffffffffffffffffffffffffffffffffffffffffffffff1916149050919050565b60008073ffffffffffffffffffffffffffffffffffffffff166002600084815260200190815260200160002060009054906101000a900473ffffffffffffffffffffffffffffffffffffffff1673ffffffffffffffffffffffffffffffffffffffff1614159050919050565b600033905090565b816004600083815260200190815260200160002060006101000a81548173ffffffffffffffffffffffffffffffffffffffff021916908373ffffffffffffffffffffffffffffffffffffffff160217905550808273ffffffffffffffffffffffffffffffffffffffff16611df4836112ab565b73ffffffffffffffffffffffffffffffffffffffff167f8c5be1e5ebec7d5bd14f71427d1e84f3dd0314c0f7b2291e5b200ac8c7c3b92560405160405180910390a45050565b600081600001549050919050565b6000611e5382611d0d565b611e92576040517f08c379a0000000000000000000000000000000000000000000000000000000008152600401611e8990613866565b60405180910390fd5b6000611e9d836112ab565b90508073ffffffffffffffffffffffffffffffffffffffff168473ffffffffffffffffffffffffffffffffffffffff161480611f0c57508373ffffffffffffffffffffffffffffffffffffffff16611ef4846106c1565b73ffffffffffffffffffffffffffffffffffffffff16145b80611f1d5750611f1c8185611c05565b5b91505092915050565b8273ffffffffffffffffffffffffffffffffffffffff16611f46826112ab565b73ffffffffffffffffffffffffffffffffffffffff1614611f9c576040517f08c379a0000000000000000000000000000000000000000000000000000000008152600401611f93906137c6565b60405180910390fd5b600073ffffffffffffffffffffffffffffffffffffffff168273ffffffffffffffffffffffffffffffffffffffff16141561200c576040517f08c379a000000000000000000000000000000000000000000000000000000000815260040161200390613826565b60405180910390fd5b6120178383836128fb565b612022600082611d81565b6001600360008573ffffffffffffffffffffffffffffffffffffffff1673ffffffffffffffffffffffffffffffffffffffff16815260200190815260200160002060008282546120729190613c65565b925050819055506001600360008473ffffffffffffffffffffffffffffffffffffffff1673ffffffffffffffffffffffffffffffffffffffff16815260200190815260200160002060008282546120c99190613b84565b92505081905550816002600083815260200190815260200160002060006101000a81548173ffffffffffffffffffffffffffffffffffffffff021916908373ffffffffffffffffffffffffffffffffffffffff160217905550808273ffffffffffffffffffffffffffffffffffffffff168473ffffffffffffffffffffffffffffffffffffffff167fddf252ad1be2c89b69c2b068fc378daa952ba7f163c4a11628f55a4df523b3ef60405160405180910390a4612188838383612900565b505050565b6001816000016000828254019250508190555050565b600073ffffffffffffffffffffffffffffffffffffffff168273ffffffffffffffffffffffffffffffffffffffff161415612213576040517f08c379a000000000000000000000000000000000000000000000000000000000815260040161220a90613926565b60405180910390fd5b61221c81611d0d565b1561225c576040517f08c379a0000000000000000000000000000000000000000000000000000000008152600401612253906137e6565b60405180910390fd5b612268600083836128fb565b6001600360008473ffffffffffffffffffffffffffffffffffffffff1673ffffffffffffffffffffffffffffffffffffffff16815260200190815260200160002060008282546122b89190613b84565b92505081905550816002600083815260200190815260200160002060006101000a81548173ffffffffffffffffffffffffffffffffffffffff021916908373ffffffffffffffffffffffffffffffffffffffff160217905550808273ffffffffffffffffffffffffffffffffffffffff16600073ffffffffffffffffffffffffffffffffffffffff167fddf252ad1be2c89b69c2b068fc378daa952ba7f163c4a11628f55a4df523b3ef60405160405180910390a461237960008383612900565b5050565b61238682611d0d565b6123c5576040517f08c379a00000000000000000000000000000000000000000000000000000000081526004016123bc906138e6565b60405180910390fd5b806006600084815260200190815260200160002090805190602001906123ec929190612cc9565b505050565b60008111612434576040517f08c379a000000000000000000000000000000000000000000000000000000000815260040161242b90613a46565b60405180910390fd5b6009543414612478576040517f08c379a000000000000000000000000000000000000000000000000000000000815260040161246f906139e6565b60405180910390fd5b6040518060a001604052808381526020013373ffffffffffffffffffffffffffffffffffffffff1681526020013073ffffffffffffffffffffffffffffffffffffffff16815260200182815260200160001515815250600d60008481526020019081526020016000206000820151816000015560208201518160010160006101000a81548173ffffffffffffffffffffffffffffffffffffffff021916908373ffffffffffffffffffffffffffffffffffffffff16021790555060408201518160020160006101000a81548173ffffffffffffffffffffffffffffffffffffffff021916908373ffffffffffffffffffffffffffffffffffffffff1602179055506060820151816003015560808201518160040160006101000a81548160ff0219169083151502179055509050506125b1333084611f26565b817fb640004f1d14576d0c209e240cad0410e0d8c0c33a09375861fbadae2588a98d33308460006040516125e89493929190613696565b60405180910390a25050565b8173ffffffffffffffffffffffffffffffffffffffff168373ffffffffffffffffffffffffffffffffffffffff161415612663576040517f08c379a000000000000000000000000000000000000000000000000000000000815260040161265a90613846565b60405180910390fd5b80600560008573ffffffffffffffffffffffffffffffffffffffff1673ffffffffffffffffffffffffffffffffffffffff16815260200190815260200160002060008473ffffffffffffffffffffffffffffffffffffffff1673ffffffffffffffffffffffffffffffffffffffff16815260200190815260200160002060006101000a81548160ff0219169083151502179055508173ffffffffffffffffffffffffffffffffffffffff168373ffffffffffffffffffffffffffffffffffffffff167f17307eab39ab6107e8899845ad3d59bd9653f200f220920489ca2b5937696c31836040516127549190613749565b60405180910390a3505050565b61276c848484611f26565b61277884848484612905565b6127b7576040517f08c379a00000000000000000000000000000000000000000000000000000000081526004016127ae906137a6565b60405180910390fd5b50505050565b6000600b546103e8836127d09190613bda565b6127da9190613c0b565b9050919050565b606060405180602001604052806000815250905090565b606061280382611d0d565b612842576040517f08c379a0000000000000000000000000000000000000000000000000000000008152600401612839906139a6565b60405180910390fd5b600061284c6127e1565b9050600081511161286c5760405180602001604052806000815250612897565b8061287684612a9c565b604051602001612887929190613657565b6040516020818303038152906040525b915050919050565b600081600001549050600081116128eb576040517f08c379a00000000000000000000000000000000000000000000000000000000081526004016128e290613786565b60405180910390fd5b6001810382600001819055505050565b505050565b505050565b60006129268473ffffffffffffffffffffffffffffffffffffffff16612c49565b15612a8f578373ffffffffffffffffffffffffffffffffffffffff1663150b7a0261294f611d79565b8786866040518563ffffffff1660e01b815260040161297194939291906136db565b602060405180830381600087803b15801561298b57600080fd5b505af19250505080156129bc57506040513d601f19601f820116820180604052508101906129b99190613075565b60015b612a3f573d80600081146129ec576040519150601f19603f3d011682016040523d82523d6000602084013e6129f1565b606091505b50600081511415612a37576040517f08c379a0000000000000000000000000000000000000000000000000000000008152600401612a2e906137a6565b60405180910390fd5b805181602001fd5b63150b7a0260e01b7bffffffffffffffffffffffffffffffffffffffffffffffffffffffff1916817bffffffffffffffffffffffffffffffffffffffffffffffffffffffff191614915050612a94565b600190505b949350505050565b60606000821415612ae4576040518060400160405280600181526020017f30000000000000000000000000000000000000000000000000000000000000008152509050612c44565b600082905060005b60008214612b16578080612aff90613dc4565b915050600a82612b0f9190613bda565b9150612aec565b60008167ffffffffffffffff811115612b58577f4e487b7100000000000000000000000000000000000000000000000000000000600052604160045260246000fd5b6040519080825280601f01601f191660200182016040528015612b8a5781602001600182028036833780820191505090505b5090505b60008514612c3d57600182612ba39190613c65565b9150600a85612bb29190613e0d565b6030612bbe9190613b84565b60f81b818381518110612bfa577f4e487b7100000000000000000000000000000000000000000000000000000000600052603260045260246000fd5b60200101907effffffffffffffffffffffffffffffffffffffffffffffffffffffffffffff1916908160001a905350600a85612c369190613bda565b9450612b8e565b8093505050505b919050565b6000808273ffffffffffffffffffffffffffffffffffffffff163b119050919050565b6040518060a0016040528060008152602001600073ffffffffffffffffffffffffffffffffffffffff168152602001600073ffffffffffffffffffffffffffffffffffffffff168152602001600081526020016000151581525090565b828054612cd590613d61565b90600052602060002090601f016020900481019282612cf75760008555612d3e565b82601f10612d1057805160ff1916838001178555612d3e565b82800160010185558215612d3e579182015b82811115612d3d578251825591602001919060010190612d22565b5b509050612d4b9190612d4f565b5090565b5b80821115612d68576000816000905550600101612d50565b5090565b6000612d7f612d7a84613aa6565b613a81565b905082815260208101848484011115612d9757600080fd5b612da2848285613d1f565b509392505050565b6000612dbd612db884613ad7565b613a81565b905082815260208101848484011115612dd557600080fd5b612de0848285613d1f565b509392505050565b600081359050612df781614566565b92915050565b600081359050612e0c8161457d565b92915050565b600081359050612e2181614594565b92915050565b600081519050612e3681614594565b92915050565b600082601f830112612e4d57600080fd5b8135612e5d848260208601612d6c565b91505092915050565b600082601f830112612e7757600080fd5b8135612e87848260208601612daa565b91505092915050565b600081359050612e9f816145ab565b92915050565b600060208284031215612eb757600080fd5b6000612ec584828501612de8565b91505092915050565b60008060408385031215612ee157600080fd5b6000612eef85828601612de8565b9250506020612f0085828601612de8565b9150509250929050565b600080600060608486031215612f1f57600080fd5b6000612f2d86828701612de8565b9350506020612f3e86828701612de8565b9250506040612f4f86828701612e90565b9150509250925092565b60008060008060808587031215612f6f57600080fd5b6000612f7d87828801612de8565b9450506020612f8e87828801612de8565b9350506040612f9f87828801612e90565b925050606085013567ffffffffffffffff811115612fbc57600080fd5b612fc887828801612e3c565b91505092959194509250565b60008060408385031215612fe757600080fd5b6000612ff585828601612de8565b925050602061300685828601612dfd565b9150509250929050565b6000806040838503121561302357600080fd5b600061303185828601612de8565b925050602061304285828601612e90565b9150509250929050565b60006020828403121561305e57600080fd5b600061306c84828501612e12565b91505092915050565b60006020828403121561308757600080fd5b600061309584828501612e27565b91505092915050565b600080604083850312156130b157600080fd5b600083013567ffffffffffffffff8111156130cb57600080fd5b6130d785828601612e66565b92505060206130e885828601612e90565b9150509250929050565b60006020828403121561310457600080fd5b600061311284828501612e90565b91505092915050565b6000806040838503121561312e57600080fd5b600061313c85828601612e90565b925050602061314d85828601612e90565b9150509250929050565b600061316383836135d1565b60a08301905092915050565b61317881613cab565b82525050565b61318781613c99565b82525050565b600061319882613b18565b6131a28185613b46565b93506131ad83613b08565b8060005b838110156131de5781516131c58882613157565b97506131d083613b39565b9250506001810190506131b1565b5085935050505092915050565b6131f481613cbd565b82525050565b61320381613cbd565b82525050565b600061321482613b23565b61321e8185613b57565b935061322e818560208601613d2e565b61323781613efa565b840191505092915050565b600061324d82613b2e565b6132578185613b68565b9350613267818560208601613d2e565b61327081613efa565b840191505092915050565b600061328682613b2e565b6132908185613b79565b93506132a0818560208601613d2e565b80840191505092915050565b60006132b9601b83613b68565b91506132c482613f0b565b602082019050919050565b60006132dc603283613b68565b91506132e782613f34565b604082019050919050565b60006132ff602583613b68565b915061330a82613f83565b604082019050919050565b6000613322601c83613b68565b915061332d82613fd2565b602082019050919050565b6000613345603383613b68565b915061335082613ffb565b604082019050919050565b6000613368602483613b68565b91506133738261404a565b604082019050919050565b600061338b601983613b68565b915061339682614099565b602082019050919050565b60006133ae602c83613b68565b91506133b9826140c2565b604082019050919050565b60006133d1603883613b68565b91506133dc82614111565b604082019050919050565b60006133f4602a83613b68565b91506133ff82614160565b604082019050919050565b6000613417602983613b68565b9150613422826141af565b604082019050919050565b600061343a602e83613b68565b9150613445826141fe565b604082019050919050565b600061345d604083613b68565b91506134688261424d565b604082019050919050565b6000613480602083613b68565b915061348b8261429c565b602082019050919050565b60006134a3603183613b68565b91506134ae826142c5565b604082019050919050565b60006134c6602a83613b68565b91506134d182614314565b604082019050919050565b60006134e9602c83613b68565b91506134f482614363565b604082019050919050565b600061350c602f83613b68565b9150613517826143b2565b604082019050919050565b600061352f602183613b68565b915061353a82614401565b604082019050919050565b6000613552602483613b68565b915061355d82614450565b604082019050919050565b6000613575603183613b68565b91506135808261449f565b604082019050919050565b6000613598603083613b68565b91506135a3826144ee565b604082019050919050565b60006135bb601c83613b68565b91506135c68261453d565b602082019050919050565b60a0820160008201516135e76000850182613639565b5060208201516135fa602085018261316f565b50604082015161360d604085018261316f565b5060608201516136206060850182613639565b50608082015161363360808501826131eb565b50505050565b61364281613d15565b82525050565b61365181613d15565b82525050565b6000613663828561327b565b915061366f828461327b565b91508190509392505050565b6000602082019050613690600083018461317e565b92915050565b60006080820190506136ab600083018761317e565b6136b8602083018661317e565b6136c56040830185613648565b6136d260608301846131fa565b95945050505050565b60006080820190506136f0600083018761317e565b6136fd602083018661317e565b61370a6040830185613648565b818103606083015261371c8184613209565b905095945050505050565b60006020820190508181036000830152613741818461318d565b905092915050565b600060208201905061375e60008301846131fa565b92915050565b6000602082019050818103600083015261377e8184613242565b905092915050565b6000602082019050818103600083015261379f816132ac565b9050919050565b600060208201905081810360008301526137bf816132cf565b9050919050565b600060208201905081810360008301526137df816132f2565b9050919050565b600060208201905081810360008301526137ff81613315565b9050919050565b6000602082019050818103600083015261381f81613338565b9050919050565b6000602082019050818103600083015261383f8161335b565b9050919050565b6000602082019050818103600083015261385f8161337e565b9050919050565b6000602082019050818103600083015261387f816133a1565b9050919050565b6000602082019050818103600083015261389f816133c4565b9050919050565b600060208201905081810360008301526138bf816133e7565b9050919050565b600060208201905081810360008301526138df8161340a565b9050919050565b600060208201905081810360008301526138ff8161342d565b9050919050565b6000602082019050818103600083015261391f81613450565b9050919050565b6000602082019050818103600083015261393f81613473565b9050919050565b6000602082019050818103600083015261395f81613496565b9050919050565b6000602082019050818103600083015261397f816134b9565b9050919050565b6000602082019050818103600083015261399f816134dc565b9050919050565b600060208201905081810360008301526139bf816134ff565b9050919050565b600060208201905081810360008301526139df81613522565b9050919050565b600060208201905081810360008301526139ff81613545565b9050919050565b60006020820190508181036000830152613a1f81613568565b9050919050565b60006020820190508181036000830152613a3f8161358b565b9050919050565b60006020820190508181036000830152613a5f816135ae565b9050919050565b6000602082019050613a7b6000830184613648565b92915050565b6000613a8b613a9c565b9050613a978282613d93565b919050565b6000604051905090565b600067ffffffffffffffff821115613ac157613ac0613ecb565b5b613aca82613efa565b9050602081019050919050565b600067ffffffffffffffff821115613af257613af1613ecb565b5b613afb82613efa565b9050602081019050919050565b6000819050602082019050919050565b600081519050919050565b600081519050919050565b600081519050919050565b6000602082019050919050565b600082825260208201905092915050565b600082825260208201905092915050565b600082825260208201905092915050565b600081905092915050565b6000613b8f82613d15565b9150613b9a83613d15565b9250827fffffffffffffffffffffffffffffffffffffffffffffffffffffffffffffffff03821115613bcf57613bce613e3e565b5b828201905092915050565b6000613be582613d15565b9150613bf083613d15565b925082613c0057613bff613e6d565b5b828204905092915050565b6000613c1682613d15565b9150613c2183613d15565b9250817fffffffffffffffffffffffffffffffffffffffffffffffffffffffffffffffff0483118215151615613c5a57613c59613e3e565b5b828202905092915050565b6000613c7082613d15565b9150613c7b83613d15565b925082821015613c8e57613c8d613e3e565b5b828203905092915050565b6000613ca482613cf5565b9050919050565b6000613cb682613cf5565b9050919050565b60008115159050919050565b60007fffffffff0000000000000000000000000000000000000000000000000000000082169050919050565b600073ffffffffffffffffffffffffffffffffffffffff82169050919050565b6000819050919050565b82818337600083830152505050565b60005b83811015613d4c578082015181840152602081019050613d31565b83811115613d5b576000848401525b50505050565b60006002820490506001821680613d7957607f821691505b60208210811415613d8d57613d8c613e9c565b5b50919050565b613d9c82613efa565b810181811067ffffffffffffffff82111715613dbb57613dba613ecb565b5b80604052505050565b6000613dcf82613d15565b91507fffffffffffffffffffffffffffffffffffffffffffffffffffffffffffffffff821415613e0257613e01613e3e565b5b600182019050919050565b6000613e1882613d15565b9150613e2383613d15565b925082613e3357613e32613e6d565b5b828206905092915050565b7f4e487b7100000000000000000000000000000000000000000000000000000000600052601160045260246000fd5b7f4e487b7100000000000000000000000000000000000000000000000000000000600052601260045260246000fd5b7f4e487b7100000000000000000000000000000000000000000000000000000000600052602260045260246000fd5b7f4e487b7100000000000000000000000000000000000000000000000000000000600052604160045260246000fd5b6000601f19601f8301169050919050565b7f436f756e7465723a2064656372656d656e74206f766572666c6f770000000000600082015250565b7f4552433732313a207472616e7366657220746f206e6f6e20455243373231526560008201527f63656976657220696d706c656d656e7465720000000000000000000000000000602082015250565b7f4552433732313a207472616e736665722066726f6d20696e636f72726563742060008201527f6f776e6572000000000000000000000000000000000000000000000000000000602082015250565b7f4552433732313a20746f6b656e20616c7265616479206d696e74656400000000600082015250565b7f4f6e6c79206d61726b6574706c616365206f776e65722063616e20757064617460008201527f6520746865206c697374696e6720707269636500000000000000000000000000602082015250565b7f4552433732313a207472616e7366657220746f20746865207a65726f2061646460008201527f7265737300000000000000000000000000000000000000000000000000000000602082015250565b7f4552433732313a20617070726f766520746f2063616c6c657200000000000000600082015250565b7f4552433732313a206f70657261746f7220717565727920666f72206e6f6e657860008201527f697374656e7420746f6b656e0000000000000000000000000000000000000000602082015250565b7f4552433732313a20617070726f76652063616c6c6572206973206e6f74206f7760008201527f6e6572206e6f7220617070726f76656420666f7220616c6c0000000000000000602082015250565b7f4552433732313a2062616c616e636520717565727920666f7220746865207a6560008201527f726f206164647265737300000000000000000000000000000000000000000000602082015250565b7f4552433732313a206f776e657220717565727920666f72206e6f6e657869737460008201527f656e7420746f6b656e0000000000000000000000000000000000000000000000602082015250565b7f45524337323155524953746f726167653a2055524920736574206f66206e6f6e60008201527f6578697374656e7420746f6b656e000000000000000000000000000000000000602082015250565b7f506c65617365207375626d6974207468652061736b696e67207072696365206960008201527f6e206f7264657220746f20636f6d706c65746520746865207075726368617365602082015250565b7f4552433732313a206d696e7420746f20746865207a65726f2061646472657373600082015250565b7f45524337323155524953746f726167653a2055524920717565727920666f722060008201527f6e6f6e6578697374656e7420746f6b656e000000000000000000000000000000602082015250565b7f4f6e6c79206974656d206f776e65722063616e20706572666f726d207468697360008201527f206f7065726174696f6e00000000000000000000000000000000000000000000602082015250565b7f4552433732313a20617070726f76656420717565727920666f72206e6f6e657860008201527f697374656e7420746f6b656e0000000000000000000000000000000000000000602082015250565b7f4552433732314d657461646174613a2055524920717565727920666f72206e6f60008201527f6e6578697374656e7420746f6b656e0000000000000000000000000000000000602082015250565b7f4552433732313a20617070726f76616c20746f2063757272656e74206f776e6560008201527f7200000000000000000000000000000000000000000000000000000000000000602082015250565b7f5072696365206d75737420626520657175616c20746f206c697374696e67207060008201527f7269636500000000000000000000000000000000000000000000000000000000602082015250565b7f4552433732313a207472616e736665722063616c6c6572206973206e6f74206f60008201527f776e6572206e6f7220617070726f766564000000000000000000000000000000602082015250565b7f4f6e6c79206d61726b6574706c616365206f776e65722063616e20757064617460008201527f65206c697374696e672070726963652e00000000000000000000000000000000602082015250565b7f5072696365206d757374206265206174206c6561737420312077656900000000600082015250565b61456f81613c99565b811461457a57600080fd5b50565b61458681613cbd565b811461459157600080fd5b50565b61459d81613cc9565b81146145a857600080fd5b50565b6145b481613d15565b81146145bf57600080fd5b5056fea2646970667358221220edf64325b6626f784ff5b96f014ece8f38f77259fc17d4d27bd9070fd283a3c764736f6c63430008040033",
  "linkReferences": {},
  "deployedLinkReferences": {}
}